:020000040000FA
:060000000212530207A7E3
:03002B000210754B
:03003300020E2694
:03004300020F1198
:030053000206D8CA
:03006B00020E0C76
:1000830002073C0101FF01010503010F10FEFF9D63
:100093001A9D1A9D1A9D1A591953199D1AAA2800B7
:1000A3000000006E29000000000C0000000C00019D
:1000B300FFFF0B0004508D000102007106000000D9
:1000C300E4066400020200080000050207051E02A0
:1000D300051E020A0A03B80B02803E0102F1FF1457
:1000E3009651180002020630313233343536373830
:1000F3003941424344454600286E756C6C20706F4D
:10010300696E74657229003F3F3F000000807F00E5
:1001130000803FF9021550B743BA51000020410057
:10012300E7DB2E0000A04010000000080000000ADA
:1001330000000012129F6046121272603DE968705F
:1001430008F618F618F618F622748067F712016A93
:10015300090909748067F722121272601D12129F37
:100163007005191919801A1210D2701F12113BC38E
:100173007003E6673319191940071818182208087D
:100183000874FFF618F618F618F62212113B6017DA
:100193001212DE702192F01212E87019501720F03B
:1001A30014080808090909E7F61819E7F61819E702
:1001B300F61819E7F6221212E860E6E869701F08DC
:1001C30008E62480F608E436F618547FB47F0CE67C
:1001D30054806007F6E418F618F622181822E9C6C8
:1001E300CC08C6CD08C6CE08C6CFC0E0E8C0E0EA5A
:1001F300C0E0EBC0E009E9F809E7FA09E7FBE6F933
:1002030018E6F8C3EC98ED99EE9AEBC2E7F5F0EF38
:10021300C2E795F0500E600CEBCFFBEACEFAE9CDC6
:10022300F9E8CCF8EAA2E7D2E7FAEB33FB13F5F0EF
:10023300EEA2E7D2E7FEEF33FFC5F013A2E730E605
:1002430001B313C5F0C3C0E0C0F07F00C39BFB60E4
:100253005B9418600C401AD0E023F9D0E0F8020355
:10026300398AF0E9486003D2F0E4AFF0FAF9F88094
:100273003BEB30E40D89F0EA6003D2F0E4AFF0F930
:10028300CAF8EB30E30D88F0EF6002D2F0AFF0E490
:10029300CAC9F8EB54076014FBC3EA13FAE913F96C
:1002A300E813F8EF135002D2E0FFDBEDD0E0C0E03B
:1002B30030E739C3E49FFFF5F0EC98FC42F0ED9989
:1002C300FD42F0EE9AFE42F0D0E0F9D0E0F8E5F01E
:1002D300607AE923F9EE20E742D8028067C3EF335F
:1002E300FFEC33FCED33FDEE33FE80EAEC28FCED4E
:1002F30039FDEE3AFED0E023F9D0E0F84002801B4E
:10030300C3EE13FEED13FDEC13FCEF135002D2E02A
:10031300FF08B800067F7F74FF802EEF3350178CE1
:10032300F020F00260100CBC000C0DBD00080EBEE6
:10033300000408E860DFE933E813FFEE2313FE4F00
:100343004D4C8008E95480FFE4FEFDFCEE33EF33AF
:10035300F47004FCFD7E80D0E0FBD0E0FAD0E0F83E
:10036300D0E0CFC618CEC618CDC618CCC6F9221217
:10037300127270041818182212129F700D74FFF66F
:100383001819F61819F61819F622E7548066F612AA
:1003930012E8700F1212DE70F014F608F608F60871
:1003A300F680D11212DE700CF608F608768008E6A5
:1003B300447F80EC12113E700C1210D560BFE654DE
:1003C30080F6E480BB1210D5700519191980A5E8D1
:1003D30069700C763F18768018F618F6E8F922E66D
:1003E300CDC0E018ECC0E0E633CD33CDD313F6E750
:1003F30019FCE7191933CC33C3947F400ECD9D50BC
:100403002408E65480F6E418F6800FF4043D1450F3
:100413001408E6447FF6187680E418F618F6D0E060
:10042300FCD0E0FD22CCD313CCFD18E4C6CBC0E056
:1004330018E4C6CAC0E00808ED08C633E613F61888
:10044300E433C675F003C3CA97CA09CB97CB199C8B
:1004530040047D08802EBD000302051B16B6FF0570
:100463000606081618C3CA33CACB33CB33CA27CA06
:1004730009CB37CB193CC37D08803E187D0820E7A4
:100483005CC633C6CA33CACB33CB33DDF1D5F0EB0D
:1004930030E77BCA97CA09CB974ACB199C406F4B6D
:1004A3007025E620E0218066187D08C3CA97CA0933
:1004B300CB97CB199CD3C633C6CA33CACB33CB3302
:1004C30050C9DDE7D5F0E1D3E4C636C608C636C663
:1004D30008C636C608C636C61818188031C3CA9768
:1004E300CA09CB97CB199CB34097C633C6CA33CA44
:1004F300CB33CB33DD34D5F02EC6A2E0C640C8CA19
:1005030027CA09CB37194A70BECB3CB480B9080857
:10051300E63308E633601F181818D0E0FAD0E0FB82
:10052300D0E0FCD0E0FD22187D08CA27CA09CB37EA
:10053300CB193CD3808013F618E4B67F11F618B6B6
:10054300FF0EF618C60470D20808768080CAF61823
:10055300F618F680C500121272604F12129F6012D5
:10056300E7548066F61210D270111212DE703B0946
:100573000909F4F618F618F618F62212113B70154D
:100583001212E808080860EAE6447FF61876801835
:10059300E4F618F6221212E860161212DE7012E464
:1005A300F608F608F608E65480F60909091818183B
:1005B30022EAC0E0EBC0E0ECC0E0EDC0E0E687F08B
:1005C300A4FBACF008E687F0A42CFCE435F0FA18A1
:1005D30009E687F0A42C4B60027401CA35F0FCE4F1
:1005E30033FB09E687F0D2F7A42CCB35F0FC1908CE
:1005F300E687F0A42BCC35F0FBE433FD0819E6873E
:10060300F0D2E7A42C4ACB35F0CD3400FC09E687C1
:10061300F0D2E7A42DCC35F0FDE433FA0918E687D0
:10062300F0D2F7A42CCD35F0CA3400FC08E687F0ED
:10063300D2E7D2F7A42ACC35F07A7E20E70B0ACB97
:1006430033CBCD33CDCC33CC33CB3350147004ED1B
:1006530030E00ED2F1E4CD3DCDCC3CCC3B5005DABD
:1006630005C2F1EB547FC63308E63392F0FBE73360
:1006730009E733C39A502D2B70190C0D4C4D70158F
:100683001806E608C333700D20F10AA2F013F6E44E
:1006930018800B4024E4F630F002768018F618F642
:1006A30018F68024D33B14501074FFA2F013F618ED
:1006B3007680E418F618F6800FA2F013F618E633E6
:1006C30003F618ECF618EDF6D0E0FDD0E0FCD0E030
:1006D300FBD0E0FA22C0E074F2120AC7A2AFE433FF
:1006E300FED2AFE5A7FFE5A1F5085F54106006123F
:1006F30022BF75A1EFE5085F540860081222C57593
:10070300A1F7802BEFA2E0C0D0E508A2E092F0129F
:1007130011B1158182F05017906198E0F8900E05A1
:10072300E0C398A2D265D0335002E8F075A1FEEE83
:10073300A2E092AF7F01020B26C0E074F2120AC757
:10074300A2AFE433FED2AF9061A4E0F8759B00E55D
:100753009158540860087591F712230D802AE5918A
:1007630058541060087591EF122313801BE8A2E020
:10077300C0D0E591A2E092F01211B1158182F05040
:1007830007E0C2E0F01224579061A3E0F8E5E958CE
:100793005404600E12242D75E9FB906193E0A2E6E8
:1007A30040F2808BC0E074F2120AC7A2AFE433FEBA
:1007B300D2AF9061A5E0F8E5BF585404600675BF59
:1007C300FB12246F020732C3E498F8E499F9120884
:1007D3000B8026C3E49AFAE49BFBE920E7E91208BD
:1007E3000BE498F8E499F922C3E498F8E499F91230
:1007F300080BE498F8E499F9C3E49AFAE49BFB2222
:10080300EB20E7CFE920E7E0B90010BB0008E88A56
:10081300F084F8AAF022E4FBC8FA22EB70227B10E2
:10082300C833C8C933C9335007C39AC3DBF2800640
:100833009A50012ADBEAC833F4C8C933F4C9FA224F
:1008430075F008E4C833C8C933C933C99AC99B5082
:1008530004C92AC93BD5F0ECFBC833F4C8E4C9FA90
:10086300221208A420F01430E72B74FFFCFBFA7467
:100873007F8022E4FCFBFA7480801AB48008BC00F9
:10088300F2BB00EF800F50EBF9E4C39AFAE49BFB51
:10089300E49CFCE499C6CC18C6CB18C6CA18C6F9A2
:1008A30022E4C9C608CAC608CBC6D3330308CCC6DC
:1008B3003392F0C3947F402E94184019C9B90704AA
:1008C300CACBCC225025C309CA33CACB33CBCC33D2
:1008D300CC33D9F422F4600DC9CCC313CB13CBCAE8
:1008E30013CAD9F6CC22E4FCFBFA2214FCFBFA224D
:1008F300080808EAC0E0EBC0E086F0E7A4FA1809AC
:1009030086F0E7A42AFA180986F0E7A42AFA180958
:1009130086F0E7A42AFA1986F0E7A4FBE5F02AFAA1
:10092300190886F0E7A42BFBE5F03AFA190886F0DC
:10093300E7A42BFBE5F03AFA18180986F0E7A4C5FB
:10094300F02BFBE43AFA1908E7C5F0C6A426F6E54E
:10095300F03BFBE43AFA1886F0E7A4F6E5F0082644
:10096300F6E43B08F6E43A08F6D0E0FBD0E0FA22DE
:10097300080808E630E71112116412098B08080809
:10098300C64480C618181822181818E9799EC60894
:10099300CAC608CBC608CCC6C370207996CACBCCCE
:1009A3007019798ECBCC70137986CC700EF9802AAE
:1009B300CA33CACB33CBCC33CC331930E7F2CCCBED
:1009C300CA3350147004EA30E00DE4CA3ACACB3B90
:1009D300CBCC3CCC500209C3E913C6CC182313C6B5
:1009E300CB18C6CA18C6F922E4CFC0E0E4CEC0E0F3
:1009F300E4CDC0E0E4CCC0E075F020C3E633F608F4
:100A0300E633F608E633F608E633F6181818EC333F
:100A1300FCED33FDEE33FEEF33FFC3EC9709ED97A7
:100A230009EE9709EF97191919400FFFEC97FC0985
:100A3300ED97FD09EE97FE191906D5F0BEECF709FF
:100A4300EDF709EEF709EFF7191919D0E0FCD0E03B
:100A5300FDD0E0FED0E0FF222518C582C0E0E519F5
:100A630034FFC583C0E0E518C3958224F810AF08AE
:100A73008583198582188008858319858218D2AFEA
:100A8300CEF0A3E520F0A37808E608F0A3DEFAEFA2
:100A9300F0A3E58124FAF8E608F0A3E608F0A3E65C
:100AA30008F0A30808E608F0A3E608F0A3158115EB
:100AB30081D0E0FED0E0F8158115811581E8C0E012
:100AC300EEC0E022C0D02518C582C0E0E51934FF8E
:100AD300C583C0E0E518C3958224F310AF0885836E
:100AE300198582188008858319858218D2AFC8F0CA
:100AF300A3E9F0A3EAF0A3EBF0A37908E709F0A3D5
:100B0300D8FAECF0A3EDF0A3EEF0A3EFF0A3D0E05E
:100B1300F0A3D0E0F0A3D0E0F0A3E520F0A3E5F04C
:100B2300F0A322851983851882E0C0E0A3E0F9A32E
:100B3300E0FAA3E0FBA37808E0F608A3DFFAE0FC01
:100B4300A3E0FDA3E0FEA3E0FFA3E0C0E0A3E0C0B9
:100B5300E0A3E0F5D0A3E0F520A3E0A3F5F010AF08
:100B6300088583198582188008858319858218D2A0
:100B7300AFD082D083D0E0F8D0E0321212D3B900E4
:100B830003020BC0E490020078B179148002F0A351
:100B9300D8FCD9FA9015B0AA82AB8390008678B1BD
:100BA30079018015E493A3AC82AD838A828B83F0B1
:100BB300A3AA82AB838C828D83D8E9D9E77582E2BD
:100BC30075839F7404120FD47582B17583277400E3
:100BD300120FD40E0075F0108E1A8F1B85821F859D
:100BE300831E851882851983E0CEA3E0CF851F82FB
:100BF300851E83EBC9EAC8EDCBECCAC3E833C8E969
:100C030033C9EA33CAEB33CBC3EA9EF51DEB9FF539
:100C13001CB35004AB1CAA1DEC33CCED33CDD5F083
:100C2300DAAE1AAF1B22121272601C12129F6017E7
:100C33001212E870071212DE7001D322C0D0121212
:100C4300DE7006D0D0B322C32233D0D0501430E0AC
:100C5300F6C3E7960809E7960809E7960809E796B1
:100C6300B32220E0D5E6970809E6970809E6970836
:100C730009E697B322121272601B12129F601612BA
:100C830012E870071212DE600CB322C0D01212DE1B
:100C93007005D0D022C32233D0D0501330E0EBC341
:100CA300E7960809E7960809E7960809E7962220D8
:100CB300E0E4E6970809E6970809E6970809E69746
:100CC30022D083D082ECC0E0EDC0E0E493A3FCE447
:100CD30093A3FDED4C600D120D9CEC24FFFCED3451
:100CE300FFFD80EFE493A3FCE493A3FDED4C600DC3
:100CF300120E96EC24FFFCED34FFFD80EFD0E0FDF7
:100D0300D0E0FCE493A3C0E0E493C0E022D083D01E
:100D130082E9C0E0E493A3C386F0C5F095F0F90837
:100D2300E493A386F0C5F095F0700BE493A3C39905
:100D33004005E9048002A3E475F002A42582F5824C
:100D4300E5F03583F583D0E0F9E493A3C0E0E493C1
:100D5300C0E022851983851882E0A3FEE0A3F52075
:100D63007808E0A3F608DFFAE0A3FFE0A3C0E0E021
:100D7300A3C0E0E0A3C0E0E0A3C0E0E0A3C0E010B4
:100D8300AF088582188583198008858218858319A1
:100D9300D2AFD083D082020FDAC0E0C3E4939608C7
:100DA3007401939618400FE49366700808740193D6
:100DB300661870007019A3A3C3E493960874019393
:100DC3009618A3A3400DD0E0D0E0D0E0020D00A31D
:100DD300A3A3A3A3A3D0E02274048004740280001D
:100DE300CCC0E0EDC0E0E518C39CCCAD1950011DAB
:100DF30010AF068C188D1980068C188D19D2AF127E
:100E03000F56D0E0FDD0E0FC22C0E074F2120AC716
:100E1300E589A2E15003122193758900C2C57F01C0
:100E2300020B26C0E074F2120AC7E58BA2E050035E
:100E3300122193758B00C2E880E474028000CCC059
:100E4300E0EDC0E0E518C39CCCAD1950011D10AF17
:100E5300068C188D1980068C188D19D2AF120F3499
:100E6300D0E0FDD0E0FC22121272602512129F60C6
:100E7300201212E870030212DE080808E7667010F9
:100E83001819E766700A1819E76670041819E766F7
:100E930022F422C0E0C0F088F0E49366700808747E
:100EA300019366187000A8F0A3A3700BD0F0D0E0F4
:100EB300D0E0D0E0020D00A3A3D0F0D0E022D08395
:100EC300D082CCC0E0E493A36006120F771470FACB
:100ED300E493A360061210A61470FAD0E0FCE49326
:100EE300A3C0E0E493C0E022C008C3E096F508087D
:100EF300A3E096420808A3E096420808A3E09642BE
:100F030008A2D265D033E5087001D3D00822C0E02F
:100F130074F2120AC7A2AFE433FED2AFC2C0E5D166
:100F2300A2E4500312223BEEA2E092AF7F01020B38
:100F330026CAC0E0E493A3C582CCC582C583CDC5D0
:100F430083F0A3C582CCC582C583CDC583DAE5D042
:100F5300E0CA22CAC0E0E0A3C582CCC582C583CD66
:100F6300C583F0A3C582CCC582C583CDC583DAE62C
:100F7300D0E0CA22C0E0E493A3D39C5010E493A32F
:100F8300C39C400AD0E0D0E0D0E0020EDEA3A3A3CE
:100F9300D0E0227009080808226016181818C6C382
:100FA30033C608C633C608C633C608C633C6D5E03B
:100FB300EA22C008C3E096F50808A3E096420808B1
:100FC300A3E096420808A3E09645087001D3D00831
:100FD30022C09FF59FE473D09F22D083D082C09F0D
:100FE300E493C0E0740193C0E0740293F59F22740C
:100FF30004800A74038006740280027401C0E0F462
:101003000412100DD0E01212AE222518F58210AF93
:1010130008F518400215198008F51840021519D271
:10102300AF85198322C0D0251810AF08F5185002D8
:1010330005198008F51850020519D2AFD0D022BB8C
:101043000102E722C082C08389828A83BB0003E056
:101053008002E493D083D082226016080808C6C3B6
:1010630013C618C613C618C613C618C613C6D5E0CA
:10107300EA22C0E0C0D0E8C0E0E5A8D2AFC2C7A270
:10108300E792AFD0E0F8D0D0D0E032C3E0C696F616
:1010930008A3E0C696F608A3E0C696F608A3E0C642
:1010A30096F622C0E0E493A36C7009D0E0D0E0D0C0
:1010B300E0020EDEA3A3D0E022251810AF08F51836
:1010C300400215198008F51840021519D2AF2218ED
:1010D3001818E6084608700AE608C3337005E633B5
:1010E300F4220822E066701008A3E066700A08A3E1
:1010F300E066700408A3E06622C3E09608A3E096C6
:1011030008A3E09608A3E096A2D265D03322E7664F
:1011130070100809E766700A0809E7667004080991
:10112300E76622C3E7960809E7960809E7960809E0
:10113300E796A2D265D03322191919E70947097036
:101143000AE709C3337005E733F4220922C3E096A3
:10115300F008A3E096F008A3E096F008A3E096F069
:1011630022181818E4C396F608E496F608E496F6EF
:1011730008E496F622E026F608A3E036F608A3E094
:1011830036F608A3E036F622E026F008A3E036F0B0
:1011930008A3E036F008A3E036F022E627F60809B4
:1011A300E637F60809E637F60809E637F622C0E01F
:1011B300E8C0E0E58124FCF8E6A2E7D0E0F8D0E05F
:1011C30022E657F60809E657F60809E657F608092E
:1011D300E657F622E056F608A3E056F608A3E056D3
:1011E300F608A3E056F622700422600D18C6C33336
:1011F300C608C633C6D5E0F41822E056F008A3E0CB
:1012030056F008A3E056F008A3E056F022E647F6AE
:101213000809E647F60809E647F60809E647F6220D
:10122300C6F4C608C6F4C608C6F4C608C6F4C62281
:10123300C3E09608A3E09608A3E09608A3E09622ED
:10124300C3E7960809E7960809E7960809E796228F
:1012530075D00075814075180075190200020B7E68
:10126300E6F008A3E6F008A3E6F008A3E6F022E61A
:10127300084608C3134608336002E633F422600CC1
:1012830008C6C313C618C613C6D5E0F422E0F60891
:10129300A3E0F608A3E0F608A3E0F622E70947096E
:1012A300C3134709336002E733F422CAC0E0E6F010
:1012B300A308DAFAD0E0FA22EAF0A3EBF0A3ECF009
:1012C300A3EDF022E0FAA3E0FBA3E0FCA3E0FD2200
:1012D300E5C754F84401F5C7790122E7C333194739
:1012E3001947194722E6C3331846184618462225DC
:1012F30018F582E43519F58322C2AF75D69F020033
:101303000022120FDDE92F00120FDDA13000120FB2
:10131300DD693100120FDD293200120FDD6D32005D
:10132300120FDD923200120FDDD53200120FDD22D3
:101333003300120FDD7A3400120FDD003500120F77
:10134300DD1E3500120FDD483500120FDD6235005A
:10135300120FDD713500120FDD7C3500120FDD3CFD
:101363003600120FDD953600120FDD573700120FCE
:10137300DD5F3700120FDD233800120FDD8F3800D9
:10138300120FDDBA3900120FDDDF3900120FDD5500
:101393003A00120FDDE73A00120FDDA73B00120FF0
:1013A300DDC63B00120FDDD53C00120FDDE73C002C
:1013B300120FDD573D00120FDD813D00120FDD0FCF
:1013C3003E00120FDD483E00120FDD943E00120F67
:1013D300DDB03F00120FDDF94100120FDD044200C2
:1013E300120FDD0F4200120FDD1A4200120FDD242F
:1013F3004200120FDD2F4200120FDD494200120F8F
:10140300DD534200120FDD5D4200120FDD68420022
:10141300120FDD904200120FDDEB4200120FDDF5DB
:101423004200120FDD194300120FDD3D4300120F7E
:10143300DD9B4300120FDDDF4300120FDDFB430092
:10144300120FDD724400120FDDAA4400120FDDF605
:101453004400120FDD534500120FDD0D4600120F3D
:10146300DDF14700120FDD4A4800120FDD7A490013
:10147300120FDDA04900120FDD294B00120FDDA56D
:101483004E00120FDD775000120FDD405200120F95
:10149300DDED5200120FDD585400120FDDF754003A
:1014A300120FDD3C5500120FDDA65500120FDDB5FE
:1014B3005500120FDD3C5800120FDDEE5900120FDC
:1014C300DD5B5A00120FDD3A5B00120FDD535C0047
:1014D300120FDDD05D00120FDDEF5D00120FDD4452
:1014E3005E00120FDD495F00120FDD715F00120F06
:1014F300DDC95F00120FDDA86000120FDDEC600094
:10150300120FDD376100120FDDA26100120FDDE360
:101513006200120FDD476300120FDD956400120FA6
:10152300DDF56600120FDD266700120FDDDE6800B1
:10153300120FDD336900120FDD376A00120FDDD49D
:101543006A00120FDD2D6B00120FDDE06B00120F2E
:10155300DD826C00120FDD226D00120FDDC76D00FE
:10156300120FDDBE8E01120FDDFD8E01120FDD4461
:101573009101120FDD8E9101120FDDA99201120F5D
:10158300DD119301120FDD469301120FDDBA9401B1
:10159300120FDD3D9701120FDD669801120FDDFC7E
:1015A3009801120FDD04A201120FDD99A201120F9F
:1015B300DD80A501120FDD73A601120FDDE1A60187
:1015C300120FDD27A801120FDD09A901120FDDEEAD
:1015D300AA01120FDDFFAC01120FDD69AD01120F7D
:1015E300DD3BAE01120FDD69AE01120FDD26AF0147
:1015F300120FDDFDAF01120FDDC4B001120FDD6864
:10160300B101120FDD91B101120FDDB3B101120F60
:10161300DD09B401120FDDE1B401120FDD25B501BF
:10162300120FDD8DB501120FDD45B601120FDD7707
:10163300B601120FDDBBB601120FDDF1B601120FB9
:10164300DD3DB701120FDD92B701120FDD97B70130
:10165300120FDDEAB701120FDD0FB801120FDD1E05
:10166300B901120FDD82B901120FDDF2B901120FB8
:10167300DD7EBA01120FDD4BBD01120FDD2FBE015E
:10168300120FDDB2BF01120FDDE8C101120FDD96AB
:10169300C201120FDD46C301120FDD87C501120F10
:1016A300DD2AC601120FDD71C601120FDD1DC8014F
:1016B300120FDD31C801120FDD3BC801120FDD63CC
:1016C300C801120FDD6FC801120FDD8EC801120FA2
:1016D300DDAECA01120FDDFDCB01120FDD41CC01DE
:1016E300120FDDE9CC01120FDDCCCD01120FDD7736
:1016F300CE01120FDDC3CF01120FDDC1D001120FD6
:10170300DD67D101120FDDF7D101120FDD0ED2011A
:10171300120FDD45D201120FDD4FD201120FDD5A38
:10172300D201120FDD78D201120FDDBCD201120FEC
:10173300DD19D301120FDD3ED301120FDD58D301A2
:10174300120FDDE4D301120FDD01D501120FDD6E9F
:10175300D501120FDD55D601120FDD7CD601120F14
:10176300DDF0D601120FDD6BD701120FDD6FD8014B
:10177300120FDD65D901120FDD14DA01120FDD2717
:10178300DB01120FDDC3DB01120FDD50DC01120F91
:10179300DD2EDD01120FDD66DD01120FDDBEDD0181
:1017A300120FDD87DE01120FDDA8DE01120FDD2F20
:1017B300DF01120FDD53DF01120FDD75DF01120FA1
:1017C300DDBEDF01120FDDD4E101120FDDBBE2014B
:1017D300120FDD6CE301120FDDA2E501120FDDF242
:1017E300E501120FDD32E601120FDD74E601120F7F
:1017F300DDD0E601120FDDFEE601120FDD22E70167
:10180300120FDD75E701120FDDA3E701120FDDDC17
:10181300E701120FDD31E801120FDD97E801120F26
:10182300DDEBE901120FDD0EEC01120FDD7BEC01A4
:10183300120FDDA4EC01120FDD2FED01120FDD9667
:10184300ED01120FDDE1ED01120FDD05EE01120FC7
:10185300DD29EE01120FDD84EE01120FDD9FEE0193
:10186300120FDD58EF01120FDDE3B604120FDD2274
:10187300B704120FDD788002120FDDBE8002120F53
:10188300DD9E8102120FDDA08202120FDDA383020F
:10189300120FDD2F8502120FDD8D8502120FDD4A37
:1018A3008602120FDD688702120FDDD98702120F3D
:1018B300DD158802120FDD638802120FDD6D8802C9
:1018C300120FDDB18802120FDD0D8902120FDDA8A0
:1018D3008902120FDD258A02120FDDF48A02120F2C
:1018E300DD8D8B02120FDDAD8B02120FDDE38B0258
:1018F300120FDD148C02120FDDD58C02120FDDE501
:101903008C02120FDD398D02120FDD548D02120F7E
:10191300DD668D02120FDD6F8D02120FDDC98D02A0
:10192300120FDD258E02120FDD718E02120FDD8C78
:101933008E02120FDDBD8E02120FDDDA8E02120F40
:10194300DDE68E02120FDD5A9002120FDD73900254
:10195300120FDDDA9002120FDDED9002120FDDFBA4
:101963009002120FDDAF9102120FDD939202120F5C
:10197300DD999302120FDD239402120FDD2D9402E1
:10198300120FDD9A9402120FDDB19402120FDDE300
:101993009402120FDD1C9502120FDD469502120F01
:1019A300DDA79502120FDDC79502120FDDE5950243
:1019B300120FDD2B9602120FDD519702120FDD9EDF
:1019C3009702120FDDCD9702120FDD439802120F1B
:1019D300DD6B9802120FDDA49802120FDDB298029C
:1019E300120FDD0A9902120FDD599902120FDD98C9
:1019F3009902120FDDC89902120FDDF49902120F3A
:101A0300DDFF9902120FDD1D9A02120FDDDF9A022C
:101A1300120FDDE99A02120FDD2A9B02120FDD7FFE
:101A23009B02120FDD939B02120FDDA19C02120F8A
:101A3300DDB49C02120FDDC99C02120FDD6B9D0207
:101A4300120FDDEE9D02120FDDAC9E02120FDDB709
:101A53009E02120FDDE39F02120FDDFF9F02120FA2
:101A6300DD51A002120FDD90A002120FDDA5A0022E
:101A7300120FDD07A102120FDD96A102120FDDE1A5
:101A8300A102120FDD32A402120FDDB0A402120F65
:101A9300DD25A502120FDD47A702120FDD5FA702A6
:101AA300120FDD62A702120FDD6EA702120FDD8295
:101AB300A702120FDD8AA702120FDDBDA702120FC4
:101AC300DD6DA802120FDDE3A802120FDD56A90295
:101AD300120FDD0AAA02120FDDBFAA02120FDDDE0A
:101AE300AA02120FDD84AB02120FDDAFAB02120F9D
:101AF300DDB2AB02120FDD1CAC02120FDD44AD02EE
:101B0300120FDD1CAE02120FDDA7AE02120FDDC0F5
:101B1300AF02120FDD7DB002120FDDB6B002120F5D
:101B2300DDE7B002120FDDA5B102120FDDD5B10260
:101B3300120FDDB0B202120FDD49B302120FDDD472
:101B4300B302120FDD85B402120FDD08B502120FC6
:101B5300DD3AB502120FDD7BB502120FDD77C40348
:101B6300120FDDDCC403120FDD19C503120FDD688C
:101B7300C503120FDD7EC703120FDD61C903120F08
:101B8300DDCBCC03120FDD06CD03120FDD28CD0311
:101B9300120FDD8BCD03120FDDBFCD03120FDDE27C
:101BA300CD03120FDD0FCE03120FDD6BCE03120F29
:101BB300DDB2B803120FDD30B903120FDD66B903CE
:101BC300120FDDD2B903120FDD45BB03120FDD6126
:101BD300BB03120FDDA6BB03120FDD34BC03120FD0
:101BE300DD8DBC03120FDDBABD03120FDDCCBE03C6
:101BF300120FDD29BF03120FDD95BF03120FDDF6B0
:101C0300BF03120FDD37C003120FDDE4C003120F51
:101C1300DDF6C103120FDD21C203120FDD6CC20317
:101C2300120FDDB3C203120FDD45C303120FDD0034
:101C3300C403120FDD06B504120FDD81B504120FC4
:101C4300DD008003120FDD7C8003120FDDC48003EF
:101C5300120FDD1C8103120FDDE48103120FDDD1AE
:101C63008203120FDD848803120FDDBB8803120F7A
:101C7300DD008A03120FDDA68A03120FDD41E402A1
:101C8300120FDD998D03120FDDB88D03120FDDFCEA
:101C93009003120FDD3F9403120FDDD69403120F4E
:101CA300DD069503120FDDB49503120FDDE09503F6
:101CB300120FDDA79603120FDDD99603120FDD7005
:101CC3009703120FDD9C9703120FDDB7CE03120F9C
:101CD300DDC1CE03120FDD0DCF03120FDD7BCF036A
:101CE300120FDD9CCF03120FDD4CD003120FDDE08A
:101CF300D203120FDDE9D203120FDD392F00120FC9
:101D0300DD65D303120FDDCCD303120FDD5DD403E6
:101D1300120FDD9FD403120FDDE9D403120FDD4848
:101D2300D503120FDD74D503120FDD05D603120F91
:101D3300DD44D603120FDD83D603120FDDB8D603BD
:101D4300120FDDCAD603120FDDDCD603120FDDFB43
:101D5300D603120FDD04D703120FDDBAD703120F18
:101D6300DDFAD703120FDD5DB204120FDDF7A9040C
:101D7300120FDD2DAA04120FDD76AA04120FDDC6A1
:101D8300AB04120FDD089803120FDD479903120FFE
:101D9300DD839903120FDD429B03120FDD6B9B035F
:101DA300120FDDFE9D03120FDD429E03120FDDCBEA
:101DB3009F03120FDD63A003120FDDCBA003120FED
:101DC300DD6CA103120FDDAEA103120FDDEEA10343
:101DD300120FDD79A303120FDDE9A403120FDD0E49
:101DE300A703120FDD3CA703120FDD63A703120F36
:101DF300DD6CA703120FDDF3A703120FDD11AB0395
:101E0300120FDDBAB804120FDDD0B804120FDD983B
:101E1300B604120FDD7D9C04120FDD909C04120F9B
:101E2300DD2D9D04120FDD689D04120FDD839D04DB
:101E3300120FDDA89D04120FDDED9D04120FDD1EB0
:101E43009E04120FDD4F9E04120FDDD59F04120F67
:101E5300DD62FE02120FDD98FE02120FDDB4FE02F8
:101E6300120FDDF6FE02120FDD06FF02120FDD9BDD
:101E7300FF02120FDDA5FF02120FDD718904120F9D
:101E8300DD028A04120FDD3F8A04120FDD778B0413
:101E9300120FDD488C04120FDD5C8C04120FDD9EE3
:101EA3008C04120FDD158E04120FDD92AB03120F9B
:101EB300DDE7AB03120FDDD0AC03120FDD69AD0319
:101EC300120FDDB3AD03120FDD10AE03120FDD24CD
:101ED300AE03120FDD56AE03120FDD54AF03120F24
:101EE300DD98AF03120FDDB3AF03120FDD02B003B2
:101EF300120FDD18B003120FDD25B003120FDD59E9
:101F0300B003120FDD72B003120FDD3CB103120FE9
:101F1300DD96B103120FDDE4B103120FDD06B20348
:101F2300120FDD7DB403120FDDABB403120FDD3BE3
:101F3300B503120FDDB0B503120FDDB5B503120FF4
:101F4300DDF1B503120FDD47B603120FDD0BB70347
:101F5300120FDD30B703120FDD3AB703120FDD3D69
:101F6300B703120FDDC6B703120FDDE1B703120F7C
:101F7300DDF4B703120FDD2FB803120FDD32B80300
:101F8300120FDD3DB803120FDD79B803120FDD4BDD
:101F9300B604120FDD63B604120FDD5FE103120F07
:101FA300DDAEE103120FDD50E303120FDD0EE50397
:101FB300120FDD56E503120FDD78E603120FDDA9DC
:101FC300E703120FDDCBE703120FDD27E803120F40
:101FD300DDA9E803120FDD68E402120FDD89E402D4
:101FE300120FDD13E502120FDD98E502120FDD1467
:101FF300E602120FDD7DE602120FDDC9E602120FC3
:10200300DD48E702120FDDDAE702120FDD66E802B0
:10201300120FDDA8E802120FDD14ED02120FDD949A
:10202300EE02120FDD6AEF02120FDD99EF02120FBB
:10203300DD84F102120FDD04F402120FDDBDF402A0
:10204300120FDDDAF502120FDD31F902120FDD4155
:10205300F902120FDDA2FA02120FDD2EFB02120F9C
:10206300DD57FC02120FDD48FD02120FDDCAFD022F
:10207300120FDD92EF01120FDD4CF001120FDDBEE6
:10208300F001120FDD5AF101120FDDCAF101120F37
:10209300DD83F401120FDD5AF501120FDDC7F501DF
:1020A300120FDD44F701120FDD0EF801120FDD7E72
:1020B300F801120FDD47FA01120FDD5AFB01120F6F
:1020C300DDF3FB01120FDDB9FC01120FDDD9910421
:1020D300120FDD2D9204120FDD859204120FDDD055
:1020E3009204120FDD329304120FDD9E9304120F3C
:1020F300DD519404120FDD929404120FDDA89404B1
:10210300120FDD049504120FDD429504120FDD2931
:10211300AC04120FDD5AAC04120FDD14AD04120F20
:10212300DD7AAD04120FDD6DA004120FDDF9A104F9
:10213300120FDD45B804120FDD56B804120FDD4649
:10214300FE03120FDD54FE03120FDDF8B804120F65
:10215300DD70B404120FDD80B404120FDD9BB404F0
:10216300120FDDFCB404120FDD5BB104120FDDE0CE
:10217300B104120FDD44B204120FDD49B004120F93
:10218300DD6BB004120FDDD5B004120FDDE0B00437
:10219300120FDD24B104120FDDDDE803120FDD6C35
:1021A300E903120FDD7AE903120FDDBBE903120F16
:1021B300DDD5E903120FDD52EA03120FDD4CEB0309
:1021C300120FDD71EB03120FDD8EEB03120FDDAB8C
:1021D300EB03120FDDDFEB03120FDD04EC03120F31
:1021E300DD4CEC03120FDDC7EC03120FDDD7ED035B
:1021F300120FDD739504120FDD819504120FDDFBC1
:102203009504120FDDDF9604120FDD989804120F68
:10221300DD98B804120FDD96EE03120FDD04EF0311
:10222300120FDDC4EF03120FDD48F003120FDD6957
:10223300F103120FDD2BF303120FDD8FF303120FE4
:10224300DDD7F303120FDDE0F303120FDDEFF3032A
:10225300120FDD02F403120FDD18F403120FDD0079
:102263008004120FDD558004120FDD518204120F1A
:10227300DD838204120FDDA58204120FDDBE82040A
:10228300120FDDD78204120FDDE18304120FDD7C10
:102293008404120FDD627E00120FDD867E00120FB2
:1022A300DD9F7E00120FDDD27E00120FDD037F0063
:1022B300120FDD317F00120FDD937F00120FDDA2BD
:1022C3007F00120FDDAC7F00120FDDB97F00120F0C
:1022D300DDA4A204120FDDCAA204120FDD07A304BA
:1022E300120FDD16A304120FDD35A304120FDD9DBB
:1022F300A304120FDDA6A304120FDD05A404120F1D
:10230300DD29A404120FDDE8A404120FDDF5A404F3
:10231300120FDD06A504120FDDC37F00120FDDE0EF
:102323007F00120FDDF38404120FDD518604120FB8
:10233300DD5E8604120FDD718604120FDD908604C4
:10234300120FDDA68604120FDDBA8604120FDD2FED
:102353008704120FDD948704120FDD448804120FE3
:10236300DD198904120FDD298904120FDD38890470
:10237300120FDDD7B304120FDDFBB304120FDD23FD
:10238300B404120FDD4BB404120FDD34A504120F95
:10239300DD5BA504120FDD7CA504120FDDE1A504AE
:1023A300120FDD9AA704120FDDB3A704120FDDBFCE
:1023B300A704120FDDD3A704120FDDF1A704120F38
:1023C300DDFBA704120FDD05A804120FDD18A80416
:1023D300120FDD6BA804120FDDA4A804120FDDD3C6
:1023E300A804120FDD21A904120FDD70A904120F36
:1023F300DD8BA904120FDD95A904120FDDA6A90434
:10240300120FDDECA904120FDDFAB504120FDD2360
:10241300D803120FDD4DD803120FDD69D803120F55
:10242300DD7CD803120FDD92D803120FDDEFD80342
:10243300120FDD22D903120FDD5EDD03120FDD84DF
:10244300DE03120FDDB7DE03120FDD03DF03120F0E
:10245300DD2FE003120FDD57E003120FDD6CE00305
:10246300120FDD7CE003120FDDC0E003120FDD214C
:10247300E103120FDD31E103120FDD03AE04120F8E
:10248300DD1EAE04120FDD47AE04120FDD61AE0494
:10249300120FDD86AE04120FDDA5AE04120FDDBDF3
:1024A300AE04120FDDEBAE04120FDD05AF04120F05
:1024B300DD72B704120FDDFD9804120FDD049904D9
:1024C300120FDD109A04120FDD409A04120FDD661D
:1024D3009A04120FDD899A04120FDDAB9A04120FCE
:1024E300DDE59A04120FDD4B9B04120FDD849B0480
:1024F300120FDDD09B04120FDDFD9B04120FDD1DB7
:102503009C04120FDD21F403120FDD01F503120FFA
:10251300DDDAF703120FDD46F803120FDDE9F803E6
:10252300120FDD0DFE01120FDD25FE01120FDD136B
:10253300FF01120FDDF2FF01120FDD36AF04120FA0
:10254300DDA8AF04120FDDE6AF04120FDD27B004E0
:10255300120FDD188E04120FDD378E04120FDD8685
:102563008E04120FDDA28E04120FDDD38E04120F20
:10257300DDE08E04120FDDED8E04120FDDD98F0422
:10258300120FDD179004120FDD279104120FDD32B5
:102593009104120FDD449104120FDD4D9104120FCB
:1025A300DD579104120FDD89F903120FDDCEFD0310
:1025B300120FDDDCFD03120FDD2CB704120FDDEC6F
:1025C300B704120FDD30B304120FDD5AB304120F38
:1025D300DDB6B704120FDD19B804120FDD70B804AD
:1025E300120FDDDAB804120FDD8CB504120FDDA86B
:1025F300FF02120FDD136E00120FDD317300120F95
:10260300DD23E402120FDDEFE202120FDD4CE202E2
:10261300120FDDFFE002120FDDAADE02120FDD4012
:10262300DE02120FDDF8DD02120FDD6ADD02120F8A
:10263300DD5DDD02120FDD57DA02120FDDB9D702BD
:10264300120FDDE82E00120FDDC12E00120FDD8206
:10265300D602120FDDD6D502120FDD7D2E00120F2A
:10266300DD422E00120FDD1CD402120FDDCCD1028D
:10267300120FDD53D102120FDDFAD002120FDD8AE1
:10268300D002120FDD61D002120FDD41CE02120F14
:10269300DD0DCE02120FDDDACD02120FDDBECD024B
:1026A300120FDDD7CC02120FDD8FCC02120FDDDA51
:1026B300CA02120FDD5ACA02120FDD57CA02120FE5
:1026C300DD58C902120FDD26C902120FDD63C802ED
:1026D300120FDD8EC602120FDD1FC602120FDDF1CF
:1026E300C502120FDD1C2E00120FDD032E00120F88
:1026F300DDAF2D00120FDD0B2D00120FDD812C003D
:10270300120FDDEEC502120FDDDBC502120FDD86EF
:10271300C502120FDD202C00120FDD75C502120F4A
:10272300DD67C402120FDD31C402120FDDDFC30205
:10273300120FDDCE2B00120FDD3CD303120FDD8011
:10274300C302120FDD4FC302120FDD17C002120FB7
:10275300DDD7BF02120FDDCBBF02120FDD2BBF028D
:10276300120FDD6BBE02120FDDEDBB02120FDD7E19
:10277300B902120FDD3CB902120FDD10B802120FBD
:10278300DDC5B702120FDD04B702120FDDD7B602A3
:10279300120FDD1AB602120FDDB0B502120FDDEA19
:1027A300B502120FDDBC2B00120FDDBC8C03000041
:1027B3000080FBE4730001363601010001020100D1
:1027C30001030100010401060605020000070100E0
:1027D300340801000F090401010D0100FF0E080078
:1027E3000017020000190100FF1A0100011B01007C
:1027F300FE1C0100081D0200001F01000120010052
:1028030001210200002301000F2402000026010021
:102813000127010008280200FF2A0100072B0102FB
:10282300402C0100002D0100012E0100012F0100A9
:10283300FF30010B1C310800003A0100083B010086
:102843000F2F0100000302710230016002110270B8
:10285300020102020202028002100261023A0041F6
:10286300006302730272026202430200021302381F
:102873000000020002040212020002000200020031
:102883000204020402370037003C0244020002390A
:102893000000020002650200023502810200020507
:1028A3000282028302000203007100300160001102
:1028B300007000310220035004800010006100000A
:1028C30000140063007300720062004300000013F1
:1028D30000060000000000040012000000000000D9
:1028E30000000004000400370037003C02440000ED
:1028F30000000000000000650000003500810000BA
:10290300000500000083000000030471040204605A
:10291300041104700402040204010402041004619B
:102923000400041404630473047204620443040083
:102933000413040604000400040404120400040045
:10294300040004000451046400000400040004446F
:102953000400040004000400046504000435048139
:1029630004640005040004830400040103710301EB
:102973000301030103010301032203020301031003
:1029830003000300030003000300030003000342EA
:1029930003000324030603000300030403120325B7
:1029A3000323032503230304030403000300030099
:1029B30003440300030003230300036503210035DD
:1029C30003810300030503000300030003010171F6
:1029D3000101010101110101013101010101018025
:1029E30001100161013B0014006301730172016274
:1029F3000143010001130106013D013500040112E9
:102A0300010001000100010001040104013301334D
:102A1300013C01440132013600000100016501005F
:102A230001350081010001050182018301000136A6
:102A3300000100060000000F00000000000000007D
:102A4300000000000003FFFF00000403FFFF00007D
:102A5300FFFF0FF4010005C4040320000100030B72
:102A6300000000000000000003010F00008B201392
:102A7300002B2001008B200200F51F0300FB1F0425
:102A83000001200500072006001320FFFF000001BE
:102A9300AB1506DB1508D5150BE71510271502B185
:102AA3001505C91507B7150C8D150D9F15FF0000EA
:102AB30003EAF5E5D5D5C5B5A59595858575756500
:102AC300655555454535352525151505B319E319BF
:102AD300B919BF19DD19D119CB19E919EF19F5196D
:102AE300011AC519AD19A71900160F00000B150B14
:102AF300020002220F320000069D1AAF1AB51A7D9A
:102B030019BB1A77198319B718B118ED18F318E719
:102B1300189F18F71A151B1B1BFD1A091B031B30E3
:102B23003016181920231A1C1E300C0E020B040B2E
:102B33000A0708000F00383C3E363B3B352B432C3D
:102B4300303017181921301B1D1F300001191618BA
:102B530016161523030000034948424D181725058F
:102B630002EB1AC11AC71AD31ACD1AD719FB190FB8
:102B73001B071A0D1A020402010101010902C318FD
:102B8300C918BD18F918000000000000CF18E1189B
:102B930000BE040A150004007F00E8030C002800AF
:102BA30000000000090308100C0A030809000400D0
:102BB30001FF1E1E0C05040F08C082C0838A828B8E
:102BC30083E0D2E7F0121F59023D33C082C08379FC
:102BD30000123088125D9FC082C083900233124B73
:102BE30025D083D082C3E09CA3E09D500C12647374
:102BF300FAA3E0122BFF600109023D33FBEA75F0F3
:102C03000BA4FAA8F075F00BEBA428FB900235E0B7
:102C13002AF8A3E03B8882F583E0540F2274F7126D
:102C23000A5B890812308812312EACF075F00BE97B
:102C3300A42CF9900235E028FEA3E039FF74016566
:102C43000860067402650870208A828B8312311A29
:102C5300123E0174026508701B122FD91231617084
:102C6300138E828F83E4F0800BEA2403FCEB123093
:102C7300FC123108EEFAEFFB1227A5023D6B74F448
:102C8300120A5B126D9A79008E828F83E0607689D7
:102C93000A890B8065E50A75F00BA4FAA8F075F0B4
:102CA3000BE50B122C0C7046E50A75F00BA4F8AA81
:102CB300F075F00BE50B1231408E828F83E08508AF
:102CC30082850983123222850882850983A3123EF5
:102CD30001EE2403FCEF123105123D3A125819AAF2
:102CE30008AB091227A5790190023312522EE50A87
:102CF3002401F50AE50B3400F50B122FE1E50A9ADE
:102D0300E50B9B4090023FAB74F5120A5BEAFEEBC6
:102D1300FF740B1212F2123D3F750A01EC4D602B4A
:102D2300EC126DB6ED125D9F123DF9790112271574
:102D3300E5084509606F850882850983A3126DA4A0
:102D43007902AA08AB09122715805AE508450960DC
:102D53002B125DA312446D123D3B12314B700CEEEE
:102D6300FAEFFB1226FDE9F50A80CBEE2403FA12F3
:102D7300308370317903EEFAEFFB80CA8E828F8342
:102D8300A3E064FE7003A3E0F4700BEE24030A0ACD
:102D93000A123083700CEEFAEFFB1226FDE9F50AF6
:102DA3008003750A00A90A7F03020D5674F7120AFD
:102DB3005B900233123D7BEA4B602FEA75F00BA464
:102DC300FAA8F075F00BEBA428FBEAFEEBFF121D4B
:102DD30079900235123D7B9002351250736012EEEA
:102DE300FCEFFD7900121CDD8007900235E4F0A3AF
:102DF300F0023D6B9002331247DDC3EE98EF992248
:102E0300C082C083EC4D600512254D80097C087D8E
:102E1300007900121CDD023D3374F6120A5B79005F
:102E2300EA4B6018780088081260E6EB12646F6062
:102E3300047901780808E8C3940840EA023E0A745A
:102E4300F7120A5B74F31210BCECFEEDFF851882D7
:102E5300851983E4F0041212F2EAF0A3EB12559FF2
:102E630074031212F2AC82AD83EEFAEFFB1226EB7F
:102E7300EEFAEFFB1226E5023D6674F7120A5B7465
:102E8300F31210BCECFEEDFF851882851983E4F084
:102E9300EAFCEBFD74031212F212321B74011212DC
:102EA300F2123DF58E828F83123E0174FE68700329
:102EB30074FF696004790180027900023D6674F74A
:102EC300120A5BEAFEEBFF122F1F7014122F2A8ED9
:102ED300828F83E0F4F88A828B83E058F01227A56F
:102EE300A908023D6B74F7120A5BEAFEEBFF750853
:102EF300008E828F83E06022122F1F701D122F2AF3
:102F03008A828B83E08F838E82F8E058700CE0F81E
:102F13008A828B83E048F01227A580C4122733E905
:102F2300F5087401650822126DAF12313212307444
:102F3300FAA3E039FB2274F4120A5B8A088B097C3A
:102F4300007D00122FD9123108123099126DA17928
:102F530000850882850983A3E064FE7003A3E0F47F
:102F630060717E007F008062EEFAEF122BFF6057E4
:102F7300EEFAEFFBEA75F00BA4FAA8F075F00BEB91
:102F8300A428FB900235E02AF50AA3E03BF50B8564
:102F93000882850983A31254ED850A82850B83A3D6
:102FA300E06A7003A3E06B701EE50A2403FAE50BE5
:102FB300123084700AE50A2403FCE50B1231051272
:102FC300308D7901125DB5123978122FE1EE9AEF47
:102FD3009B4095023FABEA24030A0A0AEB229002C4
:102FE3003312598CC32274F3120A5B8A088B098A41
:102FF300828B83A3126DA4123088126DA1750C000D
:10300300122FD912308470547E007F008049123011
:1030130066FAA3E0398A82F583E0540F60361230F2
:1030230066F50AA3E039F50BE50A2403FCE50B1268
:10303300310F3400FB122547E964017017850A82BA
:10304300850B83A3125A4DA3123E0112308D750CCA
:1030530001125DB5123978122DF740B2A90C7F0524
:10306300020D56EEF8EFF9E875F00BA4F812307480
:1030730022AAF075F00BE9A42AF9900235E0282280
:10308300EF12315B22126DB5EB22123099125DB053
:10309300EEF0A3EFF022E508126DB6E5092274F510
:1030A300120A5BEAFEEBFF8E828F83A3126DA47C70
:1030B300007D00EE24030A0A0AEF123108EEFAEF4C
:1030C300FB122733E9F50A7401650A7029126DAF03
:1030D30012312EAAF075F00BE9123140850882F502
:1030E3008312311A12314B700DE5082403FCE509F4
:1030F3001230FC123108022DA83400FDEE2403FA2D
:10310300EF2212310F3400FB1226EB223400FDE5CF
:10311300082403FAE50922A312311F2212312322C4
:10312300E0F8A3E0F98E828F83A322123132223496
:1031330000F5831247E1E875F00BA4F82212307A08
:10314300F508A3E039F50922E8F0A3E9F0E508243E
:1031530003FAE50912315B22123161640122340062
:10316300FB1226E5E92274F3120A5B74E61210BC23
:10317300126D9A750C01750800750900750A0075C2
:103183000B00851882851983E4F0EE2403FCEF34E9
:1031930000FD74031212F212321BE96401702374EE
:1031A3000B1212F2123DF974011212F21254F17061
:1031B30003A3E06960518518828519838582088598
:1031C3008309740D1212F2E4123222740E1212F2F7
:1031D300123E01740D1212F2AA82AB83121CFBE998
:1031E3006401700B740D1212F285820A85830B78C9
:1031F3000A120FFAAC08AD09EEFAEFFB1226F774C8
:1032030002121028E9F50CEEFAEFFB122643A90C83
:10321300741A1210280230611234EE1213052212AE
:103223003D761247DD22C082C08378007900800397
:10323300123319122FE1E89AE99B5029E8FAE9FBC6
:10324300EA75F00BA4FAACF075F00BEBA42CFB9031
:103253000235E02AFCA3E03B8C82F583E0540F7037
:10326300CF790080027901023D33C082C083902B65
:1032730097124833EC75F012A4FCA8F075F012ED28
:10328300A428FD79FF7A587B10121CDD023D3374AC
:10329300F7120A5BE9FEEAFF7A007B007800790007
:1032A3008028E8FCE9FDEC75F012A4FC85F00875B4
:1032B300F012EDA4250812372EC39E400AE0FCEF5E
:1032C300C39C400312384D12331912372240D302E4
:1032D3003D6BC082C08378007900800312331912DA
:1032E300330D501F123732F470F2E875F012A4F860
:1032F300AAF075F012E9A42AF9745828FA7410395F
:10330300FB80047A007B00023D33902B971237E356
:10331300C3E89AE99B22E8240108E93400F92274FE
:10332300F0120A5B74F31210BC8A0A8B0B8C0C8D9F
:103333000D8908EC450D6016AA0CAB0D1213538AC8
:103343000E8B0FAE0EAF0FEE4F60030233E012137E
:10335300298A0E8B0FA80EA90FE8FEE9FFE8496042
:103363007C902BA5123442602274036508600674B6
:1033730004650870167A047903121323902BA5129F
:10338300345940077A007B0002343F902BA3123458
:1033930042601B74016508600674026508700F7A49
:1033A300027901121323902BA312345950D6851896
:1033B300828519837401F01212F2125819AC0CAD04
:1033C3000D74031212F21234E7740B1212F2123D4F
:1033D300471241E1E41258011217F78004EE4F60DF
:1033E3004A780074FF2508C39404500278048E823F
:1033F3008F831258198E828F83A3A3A3A3E508F0AA
:10340300E88E828F83A3A3A3A3A3125821120803D8
:103413001237FA8E828F83A3A3A3A3A3A3A3F012CD
:1034230037F11212C7125D991212BB1234474005CD
:103433009015B4E4F01216D1EEFAEFFB0247E7124F
:10344300593B49227A047900121323902B97126473
:1034530055EA98EB992212347275832B758297E49F
:1034630093C398F8A3E49399F9C3EA98EB9922E4F8
:1034730093F8740193F92274F2120A5B74F3121035
:10348300BC8A088B09ECFEEDFF750A00EEFAEFFB30
:103493001213538A0C8B0DA80CA90DE849603E88C2
:1034A300828983E065087004A3E06509602F888240
:1034B3008983A3A3A3A3E0C394055021125C47858A
:1034C30018828519837401F01212F2125C4BEEFC20
:1034D300EFFD74031212F21234E7750A01A90A749C
:1034E3000D0252E51234EE12131122AA82AB83129B
:1034F30026EB851882851983AA82AB832274F61280
:103503000A5B12353C600FA3A3A3A3E014C3940486
:103513005004790180027900023E0A74F6120A5BB4
:1035230012353C600FA3A3A3A3E014C39402500479
:10353300790180027900023E0A12134D8A828B833D
:10354300E58245832274F6120A5B12353C600BA3B5
:10355300A3A3A3E07004790180027900023E0AC0AC
:1035630082C083EAFCEBFD7A007B00023D30C0821F
:10357300C0837C007D00023D3074F4120A5B74F357
:103583001210BCEAFEEBFF8C0A8D0BC3EC94F8ED32
:1035930094FF4007EE4F7003023635750800750936
:1035A30000802E8518828519837401F01239A012C8
:1035B30012F21239AE601374031212F2AC82AD83AD
:1035C300EEFAEFFB122547E97049E50824011237AB
:1035D300CE902B97E4125943E50898E50999505288
:1035E300E50875F012A4F8AAF075F012E509A42A0B
:1035F300F912648860D4EE4F70A974FF650A7004F1
:1036030074FF650B60C4123990650A7004A3E0650A
:103613000B70B7E50875F012A4F508A8F075F01261
:10362300E509A428F50974582508FA74103509FB2F
:1036330080047A007B00023FA674F4120A5B74F3E1
:103643001210BC7508001213538A0A8B0BAE0AAF13
:103653000BEE4F602A8518828519837401123D7021
:10366300F8A3E0F9740B1212F2123E841226497C7D
:10367300127D0079FFEEFAEFFB121CDD75080112D3
:10368300344750099015B47401F01216D1A90802F9
:103693003FA674F7120A5BE9FE74FE6A700374FFB7
:1036A3006B7800790070058052123319123722505B
:1036B3004AE8FCE9FDEC75F012A4FCAFF075F012DA
:1036C300EDA42F12372EF460E0E8FCE9FDEC75F071
:1036D30012A4FC75F012EDA42FFD74582CF582741E
:1036E300103DF583E06A7003A3E06B70BC800912A0
:1036F300373214C39404401712331912330D501880
:10370300EE70EC12373264016005E0640370E91275
:103713003981FAA3E0FB80047AFE7BFF023D6B90C4
:103723002B97124837C3E89CE99D2212388222E87E
:10373300FAE9FBEA75F012A4FAACF075F012EBA407
:103743002CFB745C2AF58274103BF583E022121380
:1037530065023D33C082C083790180F274F0120A9E
:103763005B8A0A8B0B7A0479011213238A0C8B0D63
:10377300EA450D603EEAC333FAEB33FB121D798A47
:10378300088B09AE08AF09EE4F60237AFE7BFF1268
:10379300136B74FE6A700374FF6B601B850882856C
:1037A3000983123D7BE50824021237CE80E1750CB4
:1037B3000080047E007F00850A82850B83E50CF080
:1037C300EEFAEFFB0247ECE5082407F508E50934B8
:1037D30000F50922902B97124837C3EA9CEB9D22F0
:1037E300E493FA740193FB22121CD1740322125D39
:1037F300AAE4F0908E4D22E88E828F83A3A3A3A325
:10380300A3A3A3A312381C740112381CA3F0EE2443
:1038130010125DADE4F0A3F0221241EDA3A3A322A5
:10382300C082C0837A007B0080041912384D12379E
:10383300D7501012386CC3940550F0E970EC12386D
:103843005680047A007B00023D33EA24010AEB34FC
:1038530000FB22EA75F012A4FA75F012EBA428FB20
:1038630074582AFA74103BFB22EAFCEBFDEC75F06A
:1038730012A4FCA8F075F012EDA42812388222FDE0
:10388300745C2CF58274103DF583E02274F7120A00
:103893005B74F31210BC7E007F00023934E50875B7
:1038A300F017A4F8A9F01266E9FAA3E0FBEEF8EF2B
:1038B300F9E875F012A4F8ACF075F012E9A42C1233
:1038C300398F6A7003A3E06B603FE50875F017A4B6
:1038D300F8AAF0EA1266E8F8A3E0F974011212F20A
:1038E300E0687003A3E0696020E50875F017A4F8A9
:1038F300EAF974D428FC741139FD74031212F2AA84
:1039030082AB83122547E96014E50875F017A4F824
:10391300A9F074D228FA741139FB12180305089020
:103923002BAAE493F8E508C39850030238A0123990
:1039330078902B97126A2F5039EEF8EFF9123981EC
:10394300F47003A3E0F460E685188285198374019B
:10395300F0EEF8EFF9E875F012A4F875F012E9A4A7
:103963002AF91239A01212F21239AE60C175080099
:1039730080AD023D66EE24010EEF3400FF22E875B0
:10398300F012A4F8AAF075F012E9A42AF9123994F6
:1039930022745828F582741039F583E022745A286A
:1039A300F5827410391247DB740B22E8F0A3E91295
:1039B3003E8C12130BE922C082C08390023C74C375
:1039C300F0A37415F090023E74BDF0A37415F0904B
:1039D300024274DDF0A37413F0023D3374F7120A4C
:1039E3005BEAFEEBFF900276E06408601BE0640490
:1039F30060168E828F83E0540364017048123D3A4F
:103A03001242E2E06406703D8E828F83A3A3E064DA
:103A1300FE7003A3E0F4602D8E828F83A3A3123D77
:103A2300F5900267E0687003A3E069700BEE24155C
:103A3300F582EF12646F6008121671E9F5088008C9
:103A430012167780F67508C2EEFAEFFB121D7F029D
:103A53002EE374F4120A5B8A088B098A828B83E053
:103A6300F8A3E0FAE82AFAE43400FB121D798A0A83
:103A73008B0BAE0AAF0BEE4F60638508828509831B
:103A8300E0FC7D007900121CDD8E828F83A3A312DC
:103A93006DA41216B38E828F83A3A3A3A3123D7BBF
:103AA300850882850983E0F8EE28F8EF3400123D9B
:103AB300FD850882850983A3E0C0E0EE240D125D35
:103AC3009CD0E0F01216C5EE240E125D9CE9125450
:103AD3004EE0C0E0EE2411125D9CD0E0F0EEFAEF70
:103AE300FB023FAB74F6120A5B74EB1210BCEAFEE6
:103AF300EBFF1250706003023B8B7A077B00121DB1
:103B030079900238123D7B12507060788E828F83D9
:103B13001212C79002391242E51212BB126C68C02E
:103B2300E0123B97D0E0F0EE2405FAEF3400FB8A75
:103B3300088B098A82F583E0C0E0123B92D0E01241
:103B43003FA2E0C0E0123B92A3D0E0123DE7121285
:103B5300C78518828519831212BB88828983E0C0C6
:103B6300E074051212F2D0E0F0850882850983E043
:103B7300C0E074041212F2D0E0F074071212F212D1
:103B83003CCD80067910800279017415023E07123C
:103B93003B97A322900238E0FAA3E0F5838A82A33D
:103BA300A3A3A322C082C083125070600D90023879
:103BB30012597A900238E4F0A3F01215E11217A318
:103BC300023D3374F0120A5B74EB1210BCECFEED91
:103BD300FF890874251212F2780C121290742912BC
:103BE30012F2E0F9742A1212F2E0FC742B1212F2B0
:103BF300E0FD740F697005740F6C60129015FFE09F
:103C03006402700579C1023CC8E9C39C40F6900286
:103C130077780C121263E50890027DF0E990027B3D
:103C2300F0ECA3F0ED90027EF074FF6A700374FF72
:103C33006B701D90160AE0F47003A3E0F470051294
:103C43001CEF800C90160A123D50E8F0A3E98007A0
:103C5300900274EAF0A3EBF0EE4F6017EEFAEFFB7D
:103C6300121863E96401700BEEFCEFFD7A887B02A6
:103C730012254D900267E4F0A3F090026AF0A3F0DE
:103C8300900287F09015FFE06402700890027B7445
:103C93000FF0A3F09002767405F0141212F2E4F020
:103CA3009002771212C78518828519831212BB906E
:103CB300027DE0C0E074051212F2D0E0F074071246
:103CC30012F2123CCD74150247E9E4123E8C122520
:103CD3007722C082C083900237E07003122025123E
:103CE30013AD804CC082C083900237E09015B3704F
:103CF30004E4F0802D7401F0900237E0F460237C3B
:103D030041E0C394415002E0FCECF8E0C398F0ECCE
:103D130075F0E8A4CCA8F075F003A428FD7A80120E
:103D2300483F7AB37B1579411225658003121359F5
:103D3300D083D082020FDAEE125DAB22E0F508A346
:103D4300E0F50922123D4B22123123A3221247DD53
:103D53009002742274F7120A5BEB90027EF0121544
:103D6300CF8005740D1210287F01020D56123D7687
:103D7300A3E022123DE7A322EAF0A3EBF02274F7BB
:103D8300120A5B74F81210BCEAFEEBFF7900900292
:103D930076E06408704485188285198374FDF0A366
:103DA30074FFF01216AD74021212F2123D7B740509
:103DB3001212F2E4123D76E0C0E074041212F2D063
:103DC300E0123DE2C0E074061212F2D0E0F0740794
:103DD3001212F2E4123E881216EF7408023D6812C2
:103DE3003DE7E022F08E828F8322F08518828519C9
:103DF30083221247DD22E0F8A3E0F9125DAAE8F07E
:103E0300A3E9F0221210287F02020D56C082C0835C
:103E1300900248746DF0A37414F09002EE7449F0AC
:103E2300A37417F090024C74A3F0A37414F09002DF
:103E33004E746DF0A37414F090025074A9F0A3743F
:103E430014F0023D3374F4120A5B74F91210BC8A45
:103E5300088B098C0A8D0B851882851983780812C3
:103E6300126374041212F2E9F074051212F2E4F010
:103E730074061212F2E4123E881213957407023F7D
:103E8300A8E8F0A3E9123E8C22123DEDAA82AB838F
:103E93002274F4120A5B8A088B098A828B83125D6F
:103EA300B8EE4F7003023FA09002111250736015D9
:103EB3008A828B83A3A3E0F9EEFAEFFB900212123E
:103EC30042E51227B68E828F83A3A3A3A3A3A3A342
:103ED300A3A3E0640270748E828F83A3A3A3A3A31E
:103EE300A3E054027003023F72850882850983A30D
:103EF300A3E064E960798E828F83A3A3A3A3A3A322
:103F0300A3A3A3A3E07014901602E0048E828F8310
:103F1300A3A3A3A3A3A3A3A3A3A3F08E828F83A38B
:103F2300A3A3A3A3A3A3A3A3A3E014123FA2A3A3A6
:103F3300A37404F09016031257F3E8F0A3E9126890
:103F4300CC8B0BEA450B70031262AA8E828F83A37C
:103F5300A3A3A3A3A3A3A3A3E0640260128E828FEF
:103F630083A3A3A3A3A3A3A3A3A3E06406702E8E9A
:103F7300828F83A3A3A3A3A3A3E0A2E0501F85087A
:103F830082850983A3A3E0F9EEFAEFFB1226978E4D
:103F9300828F83A3A3A3A3A3A3E054FEF0800912FB
:103FA30041E922740D1210287F04020D5674EC129D
:103FB3000A5B74DD1210BCEAFEEBFF8C088D0974FA
:103FC300371212F2780C121290750A00740512124D
:103FD300F2AC82AD8312261974121212F2E0700849
:103FE30074151212F2E0602074051212F2E0A2E6D8
:103FF300501E8E828F83A3A3A3A3A3A3A3A3A31261
:1040030054ED121725E9600879031225350241CFD3
:1040130074051212F2E0540C64047005750B0180F0
:1040230003750B00E0A2E55035750A01E50BA2E02C
:10403300402C1216B38A108B11A810A911123D3A05
:10404300E0687003A3E069601574051212F2126D43
:10405300AB1254E91226A3E96004790480AC740519
:104063001212F2E0A2E6502274061212F2E0540396
:10407300701874051212F2E0540C640C600CE054D6
:104083000C64086005751001800375100074051237
:1040930012F2E05403F8740268700C126DAB125400
:1040A300E91226070241CF740168703AE510A2E0D5
:1040B30050031241D774051212F2A882A983740324
:1040C3001212F2E8F0A3E91247D185188285198309
:1040D3001241E1E0C0E074021212F2D0E0123E8815
:1040E3001227870241CFE860030241CF90025EE0CE
:1040F300640170108E828F83A3A3A3A3A3A3E07094
:104103000302405D74221212F274021247D1741A30
:104113001212F2123E01E510A2E0500874051212C9
:10412300F21241D7E50BA2E0506AEE240FF582EFBD
:1041330012646FC0E074171212F2D0E0F090021311
:1041430012507370030241CF1216B38A128B13A855
:1041530012A913741A1212F2E0687003A3E06970D3
:104163006B780C120FF2780A120FFE7808120FFA0E
:10417300A910740C1212F2AC82AD8374211212F2E4
:10418300AA82AB839002131242E21227B67407127B
:1041930010288038780C120FF2780A120FFE780874
:1041A300120FFA900274120DDFEE2412F582EF1251
:1041B300619D74231212F2AC82AD83740E1212F25B
:1041C300AA82AB8312268B7409121028742312104F
:1041D30028026897126DAB12598812261322E8F051
:1041E300A3E91241E9221241ED22F08E828F83A3CB
:1041F300A3A3A3A3A32274F7120A5B121F11023D08
:104203006B74F7120A5B121F17023D6B74F7120AE5
:104213005B121F23023D6BC082C083121F1D023D30
:104223003374F7120A5B121F29023D6B74F7120AEB
:104233005B74091212F2E0F5087808120FFE121FE0
:10424300357401023D68C082C083121F41023D33B1
:10425300C082C083121F47023D3374F7120A5B12F8
:104263001F4D023D6B74F7120A5BEAFEEBFF8908F0
:1042730074016508701479001214E5902BB5E4936A
:10428300FC7900EEFAEFFB12145B023D6B74F4123F
:104293000A5B74F91210BCE9FE8A088B098C0A8D3B
:1042A3000B74131212F21254ED9006A412507360A1
:1042B30027EE851882851983F074011212F27808AB
:1042C300121263EAF8EBF974051212F2123E8490AB
:1042D30006A41242E21227B6023E7FFB90024AE096
:1042E300F8A3E0F583888222C082C083121F7D0277
:1042F3003D3374F7120A5B9015B6E0F97E00800B2C
:1043030012645B540D64017001190E1244EF5003E3
:10431300E970ED023D6B74F7120A5B9015B7E0F993
:104323007E00800B12645B548D64817001190E1240
:1043330044EF5003E970ED023D6B74F2120A5B899E
:104343000BE975F006A4240CF508E5F01237D28AC0
:104353000CE508250CFAE5093400FB121D798A0CDB
:104363008B0DAE0CAF0DEE4F6027AC08AD09790095
:10437300121CDD123D3AE50BF0EE2508F8EF350986
:10438300F98E828F83A3A3A3A3A3A3A3A3A3123E04
:1043930001EEFAEFFB0252E874F6120A5BEAFEEB57
:1043A300FF1214379015B5E0F8E9C398400990025D
:1043B300441254ED12143DEE2402F8EF125AFD900C
:1043C30002461259B7900246E004F0EEFAEFFB12F0
:1043D3001443850882850983E0025FB3C082C083EA
:1043E30079009002448001091254ED8A828B83E59F
:1043F30082458370F2023D3374F7120A5BEAFEEBE7
:10440300FFEE4F6056900244125073604E888289CB
:10441300837A007B00EE65827003EF6583600FAAE9
:1044230082AB83124461E5824583602F80E790026B
:104433004412446D687002EF698E828F8370081294
:104443003DF590024480031268A9123E01EEFAEF93
:10445300FB122757EEFAEFFB121D7F023D6B12444E
:1044630065221247E188828983221247DDEE22C04A
:1044730082C08390024480048882898312507360CF
:104483000B88828983124B25EC4D70EC8A828B83D7
:10449300E4F0A3F0E84960068882898380039002F0
:1044A30044123D7B023D3374F7120A5B9002448051
:1044B300048A828B831244EA4B60257E0080010EBE
:1044C3001244EF50ECEE75F006A4FCADF0EA2CFCC0
:1044D300EB3DFDEC2410F582ED12453F70E18004C5
:1044E3007A007B00023D6B12598CEA22124548EE9A
:1044F300C3982274F7120A5B7D0080010D124544B4
:10450300EDC3985034ED75F006A4FEA8F0E8FFEA79
:104513002EFEEB3FFFEE2410F582EF12453F70DCD9
:10452300ED75F006A4FEE8FFEA2EFAEB3FFBEA2462
:1045330011F582EB12646F4CF0023D6B12647B69E0
:104543002212454822126DB5EB3400F583E0F822C0
:1045530074F6120A5B12155D7A007B008025EAF877
:10456300EBF9E875F006A4F8ACF075F006E9A42CB5
:10457300125961126C76A3E4125A57F0A3126C7CA1
:10458300126DF3902B9F12345140D37A007B00803D
:104593001C8A088B09740378081211EA125415A3B4
:1045A30074FEF0A304125837A3E4126DF3902BA901
:1045B3001245F240DC7A007B00801D8A088B097467
:1045C3000378081211EA74FA1260E7741412692E60
:1045D30074FEF0A304126DF3902BAF1245F240DB8F
:1045E300902BB3E493900252F01245FC023E0AE48E
:1045F30093F8C3EA98EB9400227CE87D037A107B5E
:10460300009002C1E0F9121E332274F0120A5B74A7
:10461300F51210BC8A088B09890A8C0BE9A2E050B9
:10462300147508FC7509FFA2E15005D2E40246CFD8
:10463300D2E30246CF1252D47003A3E06970057926
:104643000002479CAC0A7902AA08AB09121539E9A2
:1046530060EDE50AF50C780C120FFE79027CFE7D05
:10466300FFAA08AB0912504F121028E96003024752
:104673009AE50AC2E5F50A9002B4E07051E50AA290
:10468300E6404B74031212F2AC82AD83AA08AB0965
:10469300122661E970321249708A0C8B0DA80CA99D
:1046A3000DE8FEE9FFE8496025EE24020A0AEF124D
:1046B3003161601AEE2402FCEF3400FD7403121220
:1046C300F2AA82AB8312254DE50AD2E5F50A9002E0
:1046D30047E0F50C900267E0F50EA3E0F50F780EC6
:1046E300120FFA7D017C00900247E0F9AA0EAB0F8E
:1046F3001214F17402121028E9F8900247E004F052
:10470300E8600302479AE50AA2E55004740E8002AA
:104713007406C0E074011212F2D0E0125DC98A0E71
:104723008B0FAE0EAF0FEE4F60691247BA1247D12F
:10473300888289837401F07478550AA3126DBBE5EE
:104743000C126DBBA3E508F0E5091247A9E4F0E5F7
:104753000AA2E5500F74031212F2AC82AD83E8246F
:10476300061247A08E828F83A3A374FDF0A374FF68
:10477300F0E50B6015902BB6E493F8E50BC3985066
:1047830009EE2413125D9CE50BF0EEFAEFFB121316
:104793008980067910800279C7740B8049FAE9345D
:1047A30000FB12254D2288828983A3A3A3A312476A
:1047B300B522125B30A322EE2417125DAD7401F013
:1047C3001216ADEE241A125DADEAF0A3EB22F0123D
:1047D3006DAF34001247DB22F5831247E122E0F884
:1047E300A3E0F922740D1210287F08020D5674F607
:1047F300120A5B7A007B101262B760089002D374CE
:1048030001F08029900745E064019016007006E0EE
:10481300FC79018004E0FC79037A007B0012145BCD
:10482300902B9D1248337A007B10124841023E0AB6
:1048330012483722E493FC740193FD227B0090021B
:10484300C1E0F9121E2D2274EC120A5B8A088B094F
:104853008C0C8D0D890E74141212F212522E7416D2
:104863001212F2E0F510A3E0F511121725E9600723
:104873007AFF7BFF02496D9015FFE064026003023B
:1048830049607900AA08AB0912153FA90E12153326
:104893008A128B13AE12AF13EE4F70030249488E88
:1048A300828F83A3A3A3A3A3E064018E828F83A338
:1048B300A370691254ED8E828F83A3A3A3A3A3A332
:1048C300E054186043902BB4E4938E828F83A3A3A8
:1048D300A3A3F0EA650C7003EB650D6014EA650AA7
:1048E3007003EB650B600AEA65107003EB651170EA
:1048F3001F7810120FFAAC0AAD0BAA0CAB0D1218ED
:1049030021740212102880089002661262A1A3F09B
:1049130074FE6A700374FF6B601D804EA3A3A3E053
:10492300640360298E828F83A3A3A3A3A3E06404FB
:1049330070057AFE0248758E828F83A3A3A3A3A377
:10494300E0640270089002B3E064027010124970D0
:104953008B0BEA450B6006AA08AB09800DAA08ABCE
:10496300099002481242E21227B602689790027435
:104973001250551217E52274F7120A5BEAFEEBFF99
:1049830012133BE9700AEEFAEFFB121347E96006D4
:10499300EEFAEFFB80047AFE7BFF023D6B74F012AC
:1049A3000A5B8A0A8B0B8C0E8D0F8909750800121E
:1049B3001725E979006003024B17AA0AAB0B1215FE
:1049C3003FA9091215338A0C8B0DAE0CAF0DEE4FB8
:1049D30060198E828F83A3A3A3A3A3E064027055FF
:1049E3009002B3E064027003024B15AA0AAB0B906A
:1049F300024E1242E21227B612134D8A0C8B0DA8F7
:104A03000CA90DE8497003024B1588828983A3A37F
:104A1300A3A3A3E0A2E04003024B15750C01A2E19E
:104A230050687901AC0AAD0BAA0EAB0F12148BE9D7
:104A33007064024B158E828F83A3A3A3A3A3E064A8
:104A4300037005750C0280528E828F83A3A3A3A3E8
:104A5300A3E064016003024B15900274124B258E90
:104A6300828F83124E7A8A0C8B0DA80CA90DE8490C
:104A730060D1902BADE493FA88828983E0C39A5086
:104A8300C2A3E06003024B1580B988828983A3A384
:104A9300A3A3A3D2E1F0EE4F603A8E828F83A3A348
:104AA300A3A3A3A3E05418602B7508018E828F8300
:104AB300A3A3120DDF750CFE750DFF780C120FFA10
:104AC3007900AC0AAD0BAA0EAB0F12155174041288
:104AD3001028803E900267E0650E7004A3E0650F26
:104AE3007014902BB5E493FCA909AA0AAB0B12141A
:104AF3005B750801801CA90CAC0AAD0BAA0EAB0FA9
:104B030012148BE9700C750801A909AA0AAB0B12E0
:104B130014E5A9080247ECE50C2415F582E50D120E
:104B23005DB012580D2274EA120A5B74F01210BCC5
:104B33008A0C8B0D8C088D0974261212F2E0F51481
:104B4300A3E0F5157512069002F4125073602390DA
:104B53000274124B25AA08AB0912180F8A108B1185
:104B6300EA4511600D8A828B83A3E0700579000208
:104B73004E62E50C241DF50EE50D3400F50F850E90
:104B83008212505FF51388828983A3A3A3E0FA8876
:104B9300828983A3A3A3A3E0F9EA2400FEE439FFF7
:104BA300AA08AB091214EB850E82850F83124E9D62
:104BB300E029F50BE50AA2E5500375120E7487553B
:104BC3000A70177418550A6418600FE50C2417F55A
:104BD30082E50D12646F6512600779011225358035
:104BE3008C530A78C3EE94F8EF94FF501D7900EECE
:104BF300FAEFFB124E6C601288828983A3A3A3A3EE
:104C0300A3A3E054186003024B707808120FFA7DD7
:104C130000124E90121028E9F87403687003024BD7
:104C230070E86003024CDB7418550A7003024D9060
:104C3300E50AD2E0F50AA2E45004D2E1F50AA90A92
:104C43001254E6124E6C605388828983A3A3A3A3F4
:104C5300A3A3E05418604488828983A3A3A3A3A3D6
:104C6300E064017036E51045116030900274124B18
:104C73002588828983124E7A8A0E8B0FA80EA90F7C
:104C8300E849601788828983A3E0600F85108285D5
:104C93001183A3125FBE5003024B70E50AF50E7831
:104CA3000E120FFE124E83121028E9702B7C007D2A
:104CB3000085148285158374FFF0A3F0850C82852B
:104CC3000D83A3A3A3A3A3A3A3A3E06003124B1A7F
:104CD300A90B1254E6121F3B851482851583E0F459
:104CE3007003A3E0F460399002B3E064027003023E
:104CF3004B7012521FE0FAA3E01242DE1227B6EA0B
:104D030065087003EB65096003024B70EEFAEF125E
:104D130042DE1227B6851482851583EAF0A3EBF0F1
:104D23007808120FFA7D01124E90121028A90AEE8C
:104D3300FAEFFB12153F8A088B09A808A90990020C
:104D430067E0687003A3E0696003024E53EEFAEF75
:104D5300FB12134D8A088B09A808A909E849606E5C
:104D630088828983A3A3A3A3E06401600D88828959
:104D730083A3A3A3A3E064027054851882851983D7
:104D8300AC82AD83EEFAEFFB122661805590026090
:104D9300E0600FE50AF50E780E120FFE124E831235
:104DA3001028E50AF50E780E120FFE79027CFE7DBF
:104DB300FFEEFAEFFB12504F121028E96003024C8A
:104DC300DB85148285158374FFF0A3024D2212162E
:104DD300ADEAFCEBFD851882851983AA82AB8312A9
:104DE300254D850C82850D83A3A3A3A3A3A3A3A30E
:104DF300E06401700F124B1A74081212F2AA82AB0C
:104E03008312254D125029125C354430F508780879
:104E1300120FFE74011212F2858208858309780845
:104E2300120FFA740B1212F285820885830978082F
:104E3300120FFAE513F5087808120FFE7900EEFC5D
:104E4300EFFD1254E61214857406121028024B70FB
:104E5300125029125D9F124E9DE50BF01216C57478
:104E6300101210287F0E020D561215338A0E8B0F67
:104E7300A80EA90FE84922A3A312598C12180F22D6
:104E83007901AC08AD0912598112504F22AC0BA91C
:104E9300131259811214F1740222125C3DA3A3A3CD
:104EA300A32274F0120A5B74F01210BC8A0C8B0DEF
:104EB300ECFAEDFB750F089002F4125073601412B4
:104EC3005FB78A828B83E58245836007A3E0700323
:104ED300025024125029340012505FF50B88828946
:104EE30083125032E0FBEC2400FEE43BFF8882890E
:104EF30083A3A3125032A3A3E0FBECF508E43BF534
:104F03000988828983A3A3A3A3A3A3A3E0F50EE542
:104F13000AA2E45003750F10A2E550067408250F8A
:104F2300F50F748F550A700FE50C2417F582E50D04
:104F330012646F650F6008790112253502502453FE
:104F43000A707800E50AA2E4502212502912646F15
:104F53002408FCA3E03400FD74081212F2AA82AB09
:104F63008312254D7808E50AC2E4F50AE50AA2E5AD
:104F7300502812502912646F28F8A3E03400F9E88E
:104F83002408FCE93400FD851882851983AA82ABC5
:104F93008312254DE50AC2E5F50AAC0EA90BEEFA1C
:104FA300EFFB1214F7E9F87403686075900267E089
:104FB3006E7003A3E06F605EE87054E50AF50F7846
:104FC3000F120FFE125040121028E97054780A1283
:104FD3000FFE74011212F285820C85830D780C1278
:104FE3000FFA740B1212F285820C85830D780C1262
:104FF3000FFAE50BF50A780A120FFEA90EAC08ADFD
:1050030009EEFAEFFB12148574061210288012744D
:105013000468700D80B7780A120FFE125040121008
:105023002874100247E9E50C241DF582E50D22A33F
:10503300A3A3E0FC88828983A3A3A3A322790112FB
:105043005226125DB012505512504F221214AF74F3
:105053000122E0FCA3E0FDAA08AB0922F583124478
:1050630065A3E0F50A88828983A3A3E0229002382E
:105073001259E82274E8120A5B74F51210BCEAFEB6
:10508300EBFF8C088D09891474231212F2E0F50FDB
:1050930074241212F2E0F512A3E0F513742612122F
:1050A300F2E0F516A3E0F51774281212F2E0F50EFC
:1050B300A90F1214FD8A108B1174011212F27408D5
:1050C300F0E50EA2E450037410F0E50EA2E55004DF
:1050D300E02408F0851882851983AA82AB8312170E
:1050E3000D8A0C8B0DEA450D7003025206EA241754
:1050F300F582EB1252181216ADE50C241AF582E56F
:105103000D125D9F123D7B74031212F2AC82AD83CC
:10511300AA10AB11122661E9601D1252107403121A
:1051230012F2A882A983E50C2418F582E50D125D1D
:105133009FE8F0A3E98024E50EA2E4501FE5106E7A
:105143007003E5116F7015125210E50C2418F582E7
:10515300E50D125D9FE512F0A3E513F012521F1245
:10516300522E850A82F5837402F0A3E50E1252369D
:10517300E50FF0EE850A82850B83A3A3A3F0EF85E9
:105183000A82850B83A3A3A3A3125236A3A3A3E589
:1051930008F0E509850A82850B83A3A3A3A3A3A330
:1051A300F0AA10AB111214EBE92514850A82850BC2
:1051B30083A3A3A3A3A3A3A3F0750800E50EA2E40E
:1051C3005011AC12AD13E50A2408FAE50B1247A2FD
:1051D300750808E50EA2E55014AC16AD17E50A25CF
:1051E30008F8E50B3400F9E824081247A0850C827F
:1051F300850D83A3A3E510F0A3E511F0AA0CAB0D75
:10520300121389740B1210287F10020D56E50C241B
:1052130016F582E50D125DB07401F02212522612CA
:105223005DB022E50C126DB6E50D22E0F50AA3E0B0
:10523300F50B22F0850A82850B83A3A32274F21255
:105243000A5B8A088B09ECFEEDFF890A790012528A
:10525300D47003A3E069700479018073750B019026
:105263000267E065087004A3E06509601F750B0021
:10527300780B120FFEA90AEEFCEFFDAA08AB091288
:1052830017617401121028E9F50B80417900EEFAD9
:10529300EFFB121533EA4B602B8A828B83A3A3A304
:1052A300A3A3A3E05418601C7508FE7509FF7808D2
:1052B300120FFA8A828B83A3A3120DDF126BCB1218
:1052C300102880097901EEFAEFFB12140DA90B8067
:1052D3001412153F8A0C8B0DA80CA90D900267E0E0
:1052E30068221210287F06020D5674F4120A5B75A9
:1052F30008427509137A101268D38B0BEA450B70B9
:10530300031245FC900252E014F0700C902BB3E4AE
:1053130093900252F012154B7E007F00806C85083B
:1053230082850983A3A3A3A3E06059F46056E5082B
:105333002404F582E50912629B7049850882850978
:1053430083A3A3A3A3A3E06403701979028508824E
:10535300850983124B25850882850983A3A31254EB
:10536300ED12148B850882850983A3A3A3A3A3E06D
:105373006401601085088285098374FEF0A304121A
:105383005447E4F01239781237CA902BA1126A2FCE
:10539300408C7E007F0080391216538E088F09746B
:1053A3000378081211EA74BA2508FC74143509FD50
:1053B3007A977B14121641EA4B70DD8E088F0974BD
:1053C3000378081211EA125415126C76E4F01239BC
:1053D30078902BA9E493F8C3EE98EF9400501B8EBA
:1053E300088F09740378081211EA12541DE8240780
:1053F300F582E912629B70D680A17E007F00800A4D
:10540300125428600214F0123978126A2C40F10207
:105413003FAB12541D888289832274BA2508F8741D
:10542300143509F922EEF8EFF9E875F006A4F8AAA5
:10543300F075F006E9A42AF9745A28F58274143930
:10544300F583E02212544EA3A3A322F0850882859C
:105453000983A3A32274F7120A5B74E11210BCEC54
:10546300FEEDFF750800EE4F60728A828B83E024A5
:105473001C1262CC12507360638A828B831254EDC8
:10548300851882851983AC82AD83EA241BF582EBF0
:1054930012619DEA241CF582EB1254E912169574ED
:1054A3000B1212F21254F17003A3E069702E74020E
:1054B3001212F2E064017024741D1212F21242E21D
:1054C300E064017017741D1212F21242E4A3A3E008
:1054D300F88E828F83E0687003750801A908741F32
:1054E300023D681252263400F58312598C22123180
:1054F3001FE0682274F4120A5BE9702479009002B9
:105503004C1242E21227B68A0A8B0BAE0AAF0B7417
:10551300FE6E700374FF6F701A902BB0E4936013E8
:10552300790190024C1242E21227B68A0A8B0BAE23
:105533000AAF0B1216D1023AE074F6120A5B74F347
:105543001210BC121CEF8A088B09AE08AF09900237
:1055530067E06E7003A3E06F60E91216B9EA6E703C
:1055630002EB6F60DEEEFAEFFB121725E970D4EE63
:105573004F60D0851882851983E4F0041212F2EE8D
:10558300F0A3EF12559FE970BA74FE6E700374FFB7
:105593006F60B0EEFAEFFB740D023E07123E8C1201
:1055A3001CFB22C082C0831216D1023D337F0A0244
:1055B3000D5674F2120A5BEAFEEBFF8C0A8D0B891F
:1055C30008740E1212F2E0F50974FC6E700374FF96
:1055D3006F700579000252E8790012153F8A0C8B2F
:1055E3000DAE0CAF0D900267E06E7003A3E06F7019
:1055F30006E509A2E650DCA909126AB970617900CF
:105603007AFE7BFF126AB97056741855097003024B
:1056130056EC780079008003123319902BA11233D2
:105623001040030256ECE8FAE9FBEA75F007A4FA26
:10563300ACF075F007EBA42CFB74482AF5827413C5
:105643003BF583E0541870D0E875F007A4F8AAF08E
:1056530075F007E9A42AF9744228F8741339F98814
:10566300828983A3A3A3A3A3A3E054186009741896
:10567300550970030255D688828983EEF0A3EFF0B3
:1056830074FE650A700474FF650B60031258138877
:10569300828983A3A3A3A3A3A3E509F0A2E0500DEA
:1056A30088828983A3A3A3A3A3A3D2E2F074016591
:1056B3000888828983A3A3A3A3A370387401125813
:1056C30037E054186028902BB4E49388828983A32D
:1056D300A3A3A312580112180F8B0DEA450D600303
:1056E3000255D678007900803979020255D89002A4
:1056F30066E080D7E0640170030255D6888289830F
:10570300A3A3A3A3A3A3E054186007902BB4E4932B
:105713008004900265E01247A9E508F00255D6120D
:105723003319902BAAE493FAC3E89AE9940040034F
:105733000255D67A007B00804BEAFCEBFDEC75F05A
:1057430007A4FCAEF075F007EDA42EFD74442CF510
:105753008274133DF583125DB8E8FCE9FDEC75F046
:1057630017A4FC85F00975F017EDA42509FD74D283
:105773002CF58274113DF583E06E7003A3E06F6036
:105783009E12384D902BA11237DA40AD124833ECFC
:105793006A7002ED6B7088E875F017A4F8AAF075CB
:1057A300F017E9A42AF974D228FE741139FF7C1783
:1057B3007D007900EEFAEFFB121CDD8E828F8312DF
:1057C30058199002741257F3A3A3A3A3A3A3E8F059
:1057D300A3E91257F97401F0EE240E125D9C7401D3
:1057E300125821120803EE240D125D9CE802571E85
:1057F300123D4BA3A322F0EE240F125DAD22F01253
:10580300580AAA0AAB0B22900274E0FCA3E0FD2223
:1058130088828983A3A3E50AF0A3E50BF022F012A3
:10582300582622902BADE4932401F8E43400F97A4E
:10583300027B00221247B5A32274ED120A5B8A0889
:105843008B09890E12596A40057905025938121FCE
:1058530083AA08AB09125A3C902B9F12593B650A45
:105863007003E9650B70077AFE7BFF125A3C902B9D
:105873009FE4125943E50A98E50B99400302593610
:105883001259476012E50A75F006A4F875F006E5AB
:105893000B125992121D7FE50E6018E50A75F0068A
:1058A300A4F8AAF075F006E50B1259BE701A790137
:1058B300025938E50A75F006A4F8AAF075F006E572
:1058C3000B12599FE4F0A3F0E50A75F006A4F8AAB9
:1058D300F075F006E50B12595FA3125C4B888289C1
:1058E30083A3AA82AB831259AD8A828B83E0603F84
:1058F300125947603A8E108F117512007810120FEB
:10590300F6E50EC333FCE433FDE50A75F006A4F5B2
:105913000AA8F075F006E50BA428F50B745E250ABA
:10592300F5827414350B1254EB1237EB12102879ED
:105933000080027907026ACF123472E822902B9713
:1059430012645622E50A75F006A4F8AAF075F0066B
:10595300E50B12599AF8A3E0F9E84922A42A125A4E
:10596300F388828983A322ECFEEDFF902BABE493B3
:10597300F8E9C39822F58312598C121D7F22E50C96
:10598300126DB6E50D3400F583E0FAA3E0FB2212B5
:10599300599AFAA3E0FB2212599FE022A42AF97430
:1059A3005E28F582741439F58322E50EF090160112
:1059B3001259B722E088828983F022125B17F50C13
:1059C300E93400F50DE50EC333FAE433FB121D7918
:1059D300850C82850D83EAF0A3EBF0850C82850D9F
:1059E300831259E8221247E1E8492274F4120A5B50
:1059F300ECFEEDFF740C1212F2123DF588088909D2
:105A0300125A3CAC0AAD0BECF8EDF9902B9F125AED
:105A1300445021E875F006A4F8AAF075F006E912DF
:105A2300595FE08E828F83125A57125A4D123E01EC
:105A3300790080027904023FAB1214C18A0A8B0BEE
:105A4300221237E3C3EC9AED9B221247DD850882CD
:105A530085098322125B2C2274F6120A5B7E007F77
:105A6300008028EEF8EFF9E875F006A4F8ACF075BD
:105A7300F006E9A42CF9745C28F58274141266DA32
:105A83006A7003A3E06B6057123978126A2C40D313
:105A9300126A277002E96F704674FE6A700374FF1E
:105AA3006B703C7E007F008003123978126A2C50A1
:105AB3002E12542870F3EEF8EFF9E875F006A4F807
:105AC300125AE9125B1E6017125B05F8E9125AFDC0
:105AD3008882125978850882850983E4F0A3F0EE61
:105AE300FAEFFB023E0A75F006E9125AF122A42AE4
:105AF300F9745A28F8741439F9223400F98808899A
:105B03000922EEF8EFF9E875F006A4F875F006E956
:105B1300125B1722125AF1E8240422A3A374FE1283
:105B23005B291259E822F0A304125B3022F0888229
